:100000000C9423030C945B030C945B030C945B0330
:100010000C945B030C945B030C945B030C945B03E8
:100020000C945B030C945B030C94DB2F0C94AF30AB
:100030000C94052A0C945B030C945B030C945B03F7
:100040000C945B030C945B030C945B030C945B03B8
:100050000C945B030C94A82A0C945B030C945B0334
:100060000C945B030C945B030C945B030C945B0398
:100070000C945B030C945B030C945B030C945B0388
:100080000C945B030C945B030C945B030C945B0378
:100090000C945B030C945B030C945B030C945B0368
:1000A0000C945B030C945B030C945B0300AD9DBD4F
:1000B00000AC9CBC00AB9BBB00AA9ABA00A999B942
:1000C00000A898B800A797B700A696B600A595B562
:1000D00000A494B400A393B300A292B200A191B182
:1000E00000A090B0007D6D8D007C6C8C007B6B8BD4
:1000F000007A6A8A0079698900786888007767875A
:100100000076668600756585007464840073638379
:10011000007262820071618100706080004D3D5DFF
:10012000004B3B5B004A3A5A00493959004838585D
:10013000004737570046365600453555004434547D
:10014000004333530042325200413151004030509D
:10015000001D0D2D001C0C2C001A0A2A001909295B
:100160000018082800170727001606260015052581
:1001700000140424001303230012022200110121A1
:1001800000100020001E0E2E004C3C5C001B0B2BB0
:10019000004E3E5E007E6E8E001F0F2F004F3F5FB1
:1001A000007F6F8F00AF9FBF167C1E001F002000D6
:1001B00021002200230024002500260027002D0016
:1001C0002E002A002B0014001A000800150017004A
:1001D0001C0018000C00120013002F00300031002A
:1001E000392104001600070009000A000B000D0069
:1001F0000E000F003300340000002800E1001D0055
:100200001B00060019000500110010003600370021
:10021000E500520000003800E000E300E2000000CA
:1002200000002C00000000002052E40050005100AB
:1002300000004F0003523A003B003C003D003E00EE
:100240003F004000410042004300440045004C0094
:10025000010001005200010001000100B200010094
:1002600049000100460047004800007C01005000A2
:1002700051004F00010001000100010001000100D8
:100280004A004B000000037C010001000100010056
:10029000010001001370010001004D004E00A90093
:1002A0000000A800010001000100000000000100A2
:1002B0000000000001000100AC00AA000000AB003B
:1002C00001003A003B003C003D003E003F00400082
:1002D000410042004300440045004C0001002078EA
:1002E00001002378247825782678277828782178C3
:1002F000010001000100007C01000100010001007B
:10030000010001000100010029782A7801000100A4
:100310000000037C01000100010001000100010058
:1003200001000100010001000100010000000100C6
:1003300001000100010000000000010000000000B9
:100340000100010001000100000001005300540001
:100350005500560057000100010001000100540043
:10036000550056005700010001005F006000610069
:1003700001000100010001005F0060006100010058
:100380000100005201005C005D005E000100010000
:10039000010001005C005D005E00010000005800EB
:1003A000010059005A005B0001000100010001003A
:1003B00059005A005B0001000000010001006200CA
:1003C00063000000000058000000000062006300AD
:1003D0000100010000000100000101010101010113
:1003E00001010202020202020202020303030303EA
:1003F00003030304040404040404050505050506B9
:100400000606060607070707070808080809090976
:10041000090A0A0A0B0B0B0C0C0C0D0D0D0E0E0E1F
:100420000F0F0F10101111111212131314141515B0
:1004300016161717181819191A1A1B1B1C1D1D1E22
:100440001E1F202021222223242425262627282976
:10045000292A2B2C2D2D2E2F3031323233343536A4
:100460003738393A3B3C3D3E3F40414243444546A4
:100470004748494A4C4D4E4F505153545556585980
:100480005A5B5D5E5F616264656668696B6C6D6F27
:100490007072737577787A7B7D7E8082838587889A
:1004A0008A8C8E8F91939596989A9C9EA0A2A3A5D4
:1004B000A7A9ABADAFB1B3B5B7BABCBEC0C2C4C6D5
:1004C000C9CBCDCFD1D4D6D8DBDDDFE2E4E7E9EB91
:1004D000EEF0F3F5F8FAFDFF100344005A00360081
:1004E000300052004700420000000E0344005A0052
:1004F00054004500430048000000040309040902B9
:100500003B00020100A0FA09040000010301010000
:10051000092111010001224400070581030800019F
:10052000090401000103000000092111010001225A
:10053000B60007058203200001120100020000003E
:10054000085A44211100020102000105010902A11B
:100550000185020901A100050919012908150025D5
:1005600001950875018102050109300931158125C0
:100570007F95027508810609381581257F950175DB
:10058000088106050C0A38021581257F950175083A
:100590008106C0C005010980A101850319012AB7A0
:1005A00000150126B700950175108100C0050C09E2
:1005B00001A101850419012AA002150126A00295B6
:1005C0000175108100C005010906A1018506050716
:1005D00019E029E715002501950875018102050735
:1005E000190029EF1500250195F075018102050814
:1005F0001901290595057501910295017503910170
:10060000C005010906A101050719E029E715002524
:100610000195087501810295017508810105071989
:100620000029FF150026FF009506750881000508C2
:1006300019012905150025019505750191029501FE
:1006400075039101C00011241FBECFEFDAE0DEBFB9
:10065000CDBF04B603FE18C0809155069091560692
:10066000A0915706B09158068730904BA740B04BE9
:1006700059F4109255061092560610925706109291
:100680005806E0E0F8E3099512E0A0E0B1E0E2EC02
:10069000F7E602C005900D92AA3BB107D9F726E014
:1006A000AAEBB2E001C01D92A535B207E1F70E94A6
:1006B000A9120C946D330C940000CF930E949A17EA
:1006C000C82F882359F00E942B2881FF07C02FEFE5
:1006D0004FEF6FEF88E290E00E94A5168C2FCF912C
:1006E00008958430B8F46530A8F44E3098F450E0A2
:1006F0009EE0699F400D511D1124FA0196E4899FE7
:10070000E00DF11D1124EE0FFF1FE855FE4F8591FE
:100710009491089581E090E008950E9471030895F6
:1007200081E008950E949003089581E008950E9459
:10073000900308950E949703089508950E949D03D1
:100740000895A6E0B0E0E7EAF3E00C94D4324983E0
:100750005A839E833091C10289819A8131111AC0D6
:100760003E81332399F0222389F00E943D09182FFE
:10077000682F89819A810E94190969817A81812F64
:100780000E9454102696E3E00C94F0320E942B094C
:10079000182FF3CF0E943D0969817A81F1CFFC01C6
:1007A000262F4081518162817381848195810E94CD
:1007B000A1030895CF93DF93EC0161E00E94CF0382
:1007C000BE010E949203DF91CF910895CF93DF93F2
:1007D000EC0160E00E94CF03BE010E949E03DF9106
:1007E000CF91089581E008950E94F2030895CF9378
:1007F000C82F0E94EE078C2F0E94F4032FEF84E392
:100800009CE0215080409040E1F700C00000CF9173
:10081000089581E00E94F7030E94CC2A089580E0A9
:100820000E94F7030E94F02A08950F931F93CF931D
:10083000DF938C0161E00E94CF03EC01B8010E94BC
:100840009A03811106C080E0DF91CF911F910F9133
:100850000895B801CE010E94D5278823A1F3B801DD
:10086000CE010E941124882371F3B801CE010E94A9
:10087000E723882341F3B801CE010E946C2388232B
:1008800011F3F8018581882361F0C330FCE7DF07AD
:10089000E9F058F4C115ECE7DE07A9F0C130DC47F8
:1008A000B9F0C8010E949503CFCFCB358CE7D807AC
:1008B000A9F0CC35ECE7DE0771F0CA35DC4789F7E3
:1008C0000E94840DEECF0E940904BDCF0E948C0DC2
:1008D0000E940F04B8CF0E947A0DE3CF0E94880DCA
:1008E000E0CF0E94E1290E94701F0E94990481E0DC
:1008F0000E948B2008950E949D0480E00E948B201E
:100900000E94E629089581E008950895CF93DF932A
:10091000D82F0E948304C82F882319F08D2F0E949E
:1009200085048C2FDF91CF91089508950E9486044D
:10093000089580E00E94960408950E941E280E9457
:1009400096040895CF930E941E28C82F8091BC0260
:100950008C1779F0C093BC020E94712A6093BD028B
:100960007093BE028093BF029093C0028C2F0E94AE
:100970009604CF910895ADE0B0E0E1ECF4E00C9482
:10098000D532488759876A877B878C879D879111E5
:100990000E948A0C1F8286E0FE013896DE011196C5
:1009A00001900D928A95E1F78D8181110DC0298109
:1009B0003A814B815C816D817E818F810E94D40B55
:1009C0002D96E2E00C94F132CE0101960E94DA03FA
:1009D0008111EDCFF5CFFC012481213021F48081FC
:1009E00091810E946F090895662329F00E94722563
:1009F0000E94452608950E94CC25FACFCF93C82F98
:100A0000882399F08CEF8C0F813A88F48C2F0E9408
:100A1000C128882329F08C2F0E9461290E941E0D75
:100A20008C2F0E944A290E941E0DCF91089580E2CA
:100A30008C0F883048F4C77081E001C0880FCA95D8
:100A4000EAF70E946D0CEFCFEBE5EC0FE33040F4DA
:100A5000F0E0E55AFD4F808190E00E945528E5CFF7
:100A6000E8E5EC0FEB3150F4F0E0EE0FFF1FEB5D2B
:100A7000FD4F808191810E947A28D7CF83E38C0F2C
:100A8000833198F661E08C2F0E94F404CECF882346
:100A900081F19CEF980F913A28F40E9461290E94FD
:100AA0001E0D089590E2980F983050F4877091E0F1
:100AB00001C0990F8A95EAF7892F0E94730CEFCF36
:100AC0009BE5980F933028F490E080E00E94552831
:100AD000089598E5980F9B3128F490E080E00E94FB
:100AE0007A28089593E3980F933118F460E00E94F8
:100AF000F40408951F93CF93DF93182FEB010E9406
:100B0000FE04209739F4812F0E944705DF91CF9191
:100B10001F9108958FE99FE00197F1F700C0000051
:100B20002197EFCF70E060E0893311F460E570E069
:100B30000E947A050895882321F00E946D0C0E947E
:100B40001E0D0895882321F00E94730C0E941E0D33
:100B50000895B0E0A0E0EFEAF5E00C94CE326C012D
:100B6000D62FC72FFC011581068102950F700E94B8
:100B7000630CE82E8823F9F0E12E1123E1F08C2F8D
:100B8000807F803461F080E28D0F883008F18C2FF7
:100B9000807E803221F4D230D8F00023C9F08091D9
:100BA000FA0582FF15C082E00E944E0D0E94630C80
:100BB00091E0E82EE926BC2EB2949FE0B922FBE03A
:100BC000FB15B8F1EB2DF0E0E159FC4C0C94BF3271
:100BD000E12CF1CF0C2F0F70C07F11F00295007F38
:100BE000112399F0002359F080E28D0F883010F026
:100BF000D11107C0802F0E946D0C0E941E0D8D2FF9
:100C00005AC0802F0E947D0CF8CF8D2F0E9447057F
:100C1000002379F080E28D0F883010F0D11104C0EC
:100C2000802F0E94730C03C0802F0E94830C0E94AF
:100C30001E0DEB2DE850FF0B349720F40E941E2868
:100C40000E949604EE2089F00E945F0C80FD0DC08A
:100C5000F60115820E94590C0E947708C6010E9475
:100C6000B5070E94590C0E948708CDB7DEB7E9E0AE
:100C70000C94EA322C2F2F70F22EC07FC03219F064
:100C8000F29480EFF822DD2341F0D130D1F111232D
:100C900009F444C00023F1F0B2CF8091FA0582FD3F
:100CA00015C0112359F0FF2029F08F2D0E946D0CE3
:100CB0000E941E0D80E00E94FE04BBCF80E00E94D7
:100CC0004705FF2009F4B5CF8F2DABCF112369F075
:100CD000011104C08F2D0E949B05ABCF013009F09C
:100CE000A8CF8F2D0E94A10CA4CF0111A2CF8F2DD0
:100CF0000E94A2058F2D0E94AD0C8F2D0E94910C99
:100D000098CF112321F0063008F093CFE3CF0530C0
:100D100008F08FCF8F2D0E94A2058BCF0023D1F337
:100D2000D93349F43FEF87EE93E031508040904053
:100D3000E1F700C000008D2F0E9447057ACF8C2F6D
:100D400086958695837069F0813009F072CF8D2F7A
:100D50009C2F9370111102C080E090E00E947A28CD
:100D600068CF8D2F9C2F9370111102C080E090E00E
:100D70000E9455285ECF612F8D2F0E94F40459CF19
:100D80008C2F8370A1F5111154CF4D2F42954695AC
:100D90004770440F440F2D2F2F7030E0042E02C0F7
:100DA000220F331F0A94E2F790E080E0D4FF09C0DD
:100DB0008FE090E002C0880F991F4A95E2F7809576
:100DC0009095C695C695C370822B932BC23049F07F
:100DD00058F4C13019F00E9447082BCF0E943E08FA
:100DE00028CF0E94500825CF0E943B0822CF86952D
:100DF000112311F08C2F8170882309F41ACF4D2F05
:100E0000429546954770440F440F2D2F2F7030E0C8
:100E1000042E02C0220F331F0A94E2F790E080E014
:100E2000D4FF09C08FE090E002C0880F991F4A9557
:100E3000E2F780959095C695C695C370822B932B4B
:100E4000C23049F058F4C13019F00E94B208F1CE16
:100E50000E94A908EECE0E94BB08EBCE0E945F085C
:100E6000E8CECF70112329F08C2F0E9477088D2FA8
:100E700032CF8D2F0E94A2058C2F0E948708D9CED9
:100E8000D23F41F160F4D03FB9F0D13F81F011235E
:100E900009F443C00111B3CE8C2F8F711FC0D33F13
:100EA00001F1D43FA1F78091FA0582FD24C08C2F77
:100EB0008F71112311F312C0112341F0053008F096
:100EC000B8CE8C2F8F710E949908B3CE063008F0EF
:100ED000B0CEF7CF8C2F8F711111CFCF0E94770832
:100EE000A8CE112329F08C2F8F710E946B08A1CE00
:100EF0000E9466089ECE112331F063E08C2F8F7123
:100F00000E94300D96CE81E00E944E0D023008F412
:100F100090CE82E00E944E0D8CCE002359F0D93342
:100F200009F009CFEFEFF7EE23E0E150F040204069
:100F3000E1F7FFCE8C2F8F71A0CF0F931F93CF932C
:100F4000DF93EC01688179818D810E947A098C019F
:100F50000E94C4080E943A08B801CE010E94A90567
:100F6000DF91CF911F910F910895CF93DF93EC0103
:100F70008C81882399F0CE010E941504811111C043
:100F80000E94630C882351F08D81882339F0809171
:100F9000FA0582FF03C082E00E944E0DDF91CF91DF
:100FA0000895CE010E949D07CE010E94E603F6CF70
:100FB00090E080E00E94552890E080E00E947A282E
:100FC0000E948A0C0E941E0D0E9461260E944526E6
:100FD00008950E9478290E94D80708950E947A0CEB
:100FE0000E94E907089592959F70963091F058F409
:100FF000925F9F70923058F4803F19F030F4883E31
:1010000030F481E008959A5FF4CF843FD1F380E01B
:101010000895883EB0F3813FD1F7F3CFFC012481DE
:10102000222339F0808191810E946F090E94F30789
:10103000089580E00895A6E0B0E0E1E2F8E00C94C5
:10104000D5322696E2E00C94F132A7E0B0E0EBE274
:10105000F8E00C94D5322796E2E00C94F132089532
:101060000E942F0808950E9430089093E90280930F
:10107000E802089508950E94330808952091E80237
:101080003091E902822B932B0E943308089520911E
:10109000E8023091E902822393230E9433080895E5
:1010A0002091E8023091E902822793270E943308B9
:1010B00008950E942F0808950E94590808950E94DB
:1010C0005C089093E7028093E602089590E080E048
:1010D0000E945F08089521E030E0A90102C0440F9A
:1010E000551F8A95E2F7CA010E945F08089521E022
:1010F00030E002C0220F331F8A95E2F78091E602AA
:101100009091E702822B932B0E945F08089521E0C3
:1011100030E002C0220F331F8A95E2F72095309508
:101120008091E6029091E702822393230E945F0858
:10113000089521E030E002C0220F331F8A95E2F7C4
:101140008091E6029091E702822793270E945F0830
:1011500008952091E6023091E702822B932B0E94A2
:101160005F0808952091E6023091E70282239323DD
:101170000E945F0808952091E6023091E7028227DD
:1011800093270E945F0808950895262F277091E005
:1011900001C0990F2A95EAF723E0769567952A957D
:1011A000E1F7660F771F660F771FFA01E60FF71F4B
:1011B00050E040E0682F70E08191DF0111979B01C2
:1011C000042E02C0369527950A94E2F721702195E6
:1011D0002827292328272C934F5F5F4F4430510540
:1011E00059F70895A82FA77023E0969587952A951B
:1011F000E1F7880F991F880F991FFB01E80FF91F6E
:1012000050E040E080E0219130E00A2E02C03695A7
:1012100027950A94E2F721703327042E01C0220F8C
:101220000A94EAF7822B4F5F5F4F4430510559F71C
:101230000895262F953070F48E3060F4682F70E09A
:101240008EE0989F600D711D112442EC52E0822FB8
:101250000E94C5080895292F953068F48E3058F4FF
:1012600090E062EC72E03EE0239F800D911D11241E
:101270000E94F208089580E00895B0E0A0E0E3E461
:10128000F9E00C94CE327C010091E6021091E70265
:101290008091E8029091E902082B192BCFE0D0E071
:1012A000CC24C394D12CBC2EC6010C2E02C0880FB6
:1012B000991F0A94E2F780239123892B49F42197FF
:1012C00090F7B12C8B2DCDB7DEB7E9E00C94EA3264
:1012D000B7018C2F0E946010019789F3F3CFCF9351
:1012E000DF93EC010E943D09BE010E946010DF9176
:1012F000CF9108951F93CF93DF93EB019091C1029B
:10130000992339F0CB010E946F09DF91CF911F9192
:101310000895882369F0CB010E943D09182F682F9A
:10132000CE010E941909BE01812F0E946010EDCFED
:10133000CB010E942B09182FF6CF1F93CF93DF9379
:10134000C091EA0217E08091EB028C1304C0DF9198
:10135000CF911F910895D0E01C9FF0011D9FF00DCB
:101360001124E451FD4F20813181428153816481F8
:10137000758186810E9425082196C770E4CF20914F
:101380002403309125034091260350912703609157
:1013900028037091290380912A030E94250808954B
:1013A000CF93DF9380912A03807F09F04DC0809115
:1013B0002903882309F448C0E091EA025091EB0226
:1013C000C0912503D09124036091260370912703D7
:1013D00047E05E17C9F18E2F90E0E49FF0011124E1
:1013E000E451FD4F2481222391F1489FF001499F50
:1013F000F00D1124DF01A451BD4F11962C911197CE
:101400002C1325C02C912D1322C015962C911597C5
:1014100021111DC012962D913C91261B370B283CA3
:101420003105A8F480912A038F70806180932A038C
:10143000EE50FD4F80818F708061808384E293E065
:101440000E94B5070E949D09DF91CF910895FC018C
:101450003196E770BECF482F2091EA029091EB02BF
:1014600057E0291302C080E0089530E0529FF00158
:10147000539FF00D1124E451FD4F8181681306C084
:101480008081481303C085818111EECF2F5F3F4FCC
:101490002770E7CFA4E1B0E0E0E5FAE00C94CB32AE
:1014A0008C0186E0F801DE011F9601900D928A956D
:1014B000E1F7F8018481E58094E2A92E93E0B92E4A
:1014C0009091280391111FC08823D1F0EE20A9F03C
:1014D000C8010E940E08F82E882379F087E0F801F1
:1014E000D50101900D928A95E1F7C5010E94EB04A8
:1014F0000E94D0090E94BF095FC0C8010E94B507C1
:10150000FF24F39459C0C080D18082809380F090F2
:1015100029032091260330912703A401421B530B7A
:10152000FF2009F4F9C0483C510508F0A7C0882302
:1015300009F442C09091250380912A03282F207F2F
:1015400009F05CC09D1116C090912403C91212C00D
:10155000E1104EC08F70806180932A030E94BF0902
:1015600084E293E00E94B50780912A03F801868304
:10157000F12C22C0E1103CC06D2D8C2D0E942B0A55
:101580006D2D8C2D0E942B0AE82E8111F1CFCF8674
:10159000D88A8F8598890E946F09292F22952F70EC
:1015A000243078F49F702230A8F09923B9F0F80124
:1015B0009681907F99F4FE2C8F2D6496ECE00C942C
:1015C000E7322A5F2F70223068F0C8010E94B50709
:1015D000EF2CF1CF992311F0882369F3805E8830D6
:1015E00050F3F3CF803F38F3815F833070F7E3CF60
:1015F00080912A03816080932A03BACF9D1113C082
:1016000090912403C9120FC0E1100DC08683C80158
:101610000E94B50787E0F801A4E2B3E001900D92C3
:101620008A95E1F767CFC8010E940E08882309F464
:1016300064CFEE2009F461CF80912A03803288F0D4
:101640002091240330912503398728879B868A8639
:10165000909128039C871D868E87CE0108960E9454
:10166000B50787E0F801A4E2B3E001900D928A95F6
:10167000E1F70E94D0090E94BF0942CF90912A034E
:10168000292F207FA1F4682D9A8A898AA6017A8958
:101690009E2D0E941B0884E293E00E94B50787E01C
:1016A000F50111928A95E9F70E94BF0961CF88235D
:1016B00009F482CF809125038D1110C080912403FD
:1016C000C8120CC0E1100AC09683C8010E94B50779
:1016D00087E0F50111928A95E9F76ECFC8010E9463
:1016E0000E08882309F409CFEE2009F406CF809173
:1016F0002A03803208F4B5CF2091240330912503CA
:101700003A8329839C828B82909128039D831E8239
:101710008F83CE010196A3CF483C5105B8F58823AD
:1017200009F4EECEFE2CEE2009F4E7CE80912503DD
:101730008D111EC080912403C8121AC080912A0303
:1017400080FD0DC0982F907F51F08683903F09F463
:101750005ECF982F907F905F8F70892B57CF87E057
:10176000F801A4E2B3E001900D928A95E1F724CF4D
:10177000C8010E940E08811174CF80912A038160F4
:1017800080932A03C8010E94B50716CF682D9A8A54
:10179000898AA6017A899E2D0E941B0887E0F5019F
:1017A00011928A95E9F7A6CEAEE0B0E0EAEDFBE053
:1017B0000C94D432288739874A875B876C877D876A
:1017C0008E87CE0108960E944A0A8823B1F06C8564
:1017D000662341F0288539854A855B857D858E8520
:1017E0000E94250817E08091EA029091EB0289138C
:1017F0003DC02E96E3E00C94F03287E0FE0138966F
:10180000DE01119601900D928A95E1F78C8588236F
:1018100049F32091EB0230E0C901019687709927C6
:101820004091EA024817190699F097E0929FD0017B
:10183000939FB00D1124A451BD4FFE01319601902C
:101840000D929A95E1F78093EB020E949D09CACF11
:101850000E94EE071092EB021092EA0287E0E4E2A7
:10186000F3E0DF011D928A95E9F7BCCF819FC001AB
:10187000112484519D4F0E944A0A882309F4B9CF4C
:10188000E091EA021E9FF0011124E451FD4F2081F6
:101890003181428153816481758186810E9425084E
:1018A0008091EA0290E00196877099278093EA027E
:1018B0009ACF809153038695869586950895809159
:1018C00053038770089590915303977081E009F452
:1018D00080E0089580917F03089590917F03892B84
:1018E00080937F030895809590917F039823909330
:1018F0007F03089510927F03089590917E03892BB2
:1019000080937E030895809590917E039823909311
:101910007E03089510927E03089508950E948D0C11
:10192000089590915403292F282331F0809589231D
:10193000809354030E948E0C089508950E949D0C7C
:10194000089590915503292F2823281729F0982BC3
:10195000909355030E949E0C089590915503292F52
:10196000282331F080958923809355030E949E0C93
:10197000089580915503882329F01092550380E043
:101980000E949E0C0895CF93C0917F0380917E03A7
:10199000C82B80915503882331F0C82B0E949F28C3
:1019A00081110E94B90C8C2FCF910895CF93DF93B2
:1019B000C0910502D09106020E94C30C8883C09199
:1019C0000502D091060248E050E06BE473E0CE01DE
:1019D0000E940533892B59F088E0FE01ABE4B3E0A7
:1019E00001900D928A95E1F7CE010E942E28DF9199
:1019F000CF910895CF93DF93C0910302D091040259
:101A00000E94C30C8983C0910302D091040240E27A
:101A100050E06BE273E0CE010E940533892B59F050
:101A200080E2FE01ABE2B3E001900D928A95E1F70E
:101A3000CE010E943928DF91CF9108958091210233
:101A4000882339F08091F90587FF03C00E94FA0CC2
:101A500008950E94D60C089508950E942C0D0895B3
:101A60009091FA0592FF11C098E0899F900111248E
:101A7000622B609353030E947708809153038695ED
:101A8000869586950E942D0D08950E9477080895E9
:101A90001092530380E00E942D0D089590915303FE
:101AA0008095892380935303282F277069F4891721
:101AB00059F09091FA0592FF07C086958695869514
:101AC0000E9487080E94480D08959091FA0592FBA4
:101AD000222720F9281769F080FB92F99093FA05E4
:101AE0008091F9059091FA050E94AD0D82E00E9467
:101AF0004E0D08958091FA0582FB882780F991E0C8
:101B000089270E94650D089581E00E94650D089562
:101B100080E00E94650D08956FEF7FEF90E080E018
:101B20000E946733089590E080E00E94333321E003
:101B3000853E9E4F09F020E0822F089582E090E0DC
:101B40000E942B33089583E090E00E942B33089588
:101B500084E090E00E9433330895BC0184E090E07B
:101B60000E9467330895AB01BC018FE090E00E94B2
:101B70005B330895AB01BC0183E190E00E945B33CD
:101B8000089560E070E0CB010E94BA0D089560E016
:101B900070E0CB010E94B30D0E94C10D0895A8E032
:101BA000B0E0E5EDFDE00C94D53265EE7EEF90E01F
:101BB00080E00E94673360E082E090E00E94493359
:101BC00081E090E09093E9028093E80261E083E095
:101BD00090E00E94493360E074E184E090E00E946C
:101BE000673360E086E090E00E94493360E087E080
:101BF00090E00E94493340E050E0BA0188E090E074
:101C00000E945B3360E083E290E00E94493360E031
:101C10008CE090E00E94493360E08DE090E00E940B
:101C2000493319821A821B821C821D821E821F82E6
:101C3000188648E050E067E170E0CE0101960E940E
:101C4000393340E050E0BA018FE190E00E945B330D
:101C50000E94C70D2896E2E00C94F1320E94CF0D4D
:101C60000895682F8EE090E00E9449330895A6E021
:101C7000B0E0EDE3FEE00C94D3320E94652A8C01C3
:101C800080918003909181038017910781F01982E0
:101C90001A820E94652A682F49815A81792F80E033
:101CA00090E00E94BB04109381030093800326966A
:101CB000E4E00C94EF320E94712A609390037093D9
:101CC0009103809392039093930360938C0370939A
:101CD0008D0380938E0390938F0308950895089544
:101CE0000E946E0E089508950E94730E089586E571
:101CF00091E10E94BE120E946F0E0E94700E089524
:101D000081E008950E94800E08950E94800E08953B
:101D1000089508950E94880E0E94890E08950E94D9
:101D2000930D811102C00E942E0E0E949E0D809381
:101D300094030E94A80D9093FA058093F9050E94E0
:101D4000E4230E94A30D90E00E943B088091E602EC
:101D50009091E7020E945C0808950E945C2A0E940C
:101D600019120E948F0E0E9495040E942C200E943E
:101D7000740E0895A6E0B0E0E0ECFEE00C94C932E9
:101D80000E94820E81110CC00E94370E0E94701FAB
:101D90000E9483260E94A2042696EEE00C94E5326F
:101DA0000E942F1222E8822E23E0922E640110E07E
:101DB000F601E190F1906F01812F0E9460111F5F89
:101DC000153009F44EC0E816F90691F3809194039A
:101DD00081FD0E9469110E94850E682E10E0812FFE
:101DE0000E9460117C01F401A190B1904F018A150D
:101DF0009B0589F100E0CC24C394D12CAE24BF24F0
:101E0000C5018C219D21892BE9F077247394C701AA
:101E10008C219D21892B09F4712C662071F0098396
:101E20001A830E94652A682F8B839C8349815A817B
:101E3000792F81E0972D0E94BB04472D602F812FC1
:101E40000E9410170F5FCC0CDD1C0E30C9F6F40198
:101E50003297F182E0821F5F153009F60E945B0E17
:101E600095CFE816F90609F0B1CF8ECF1F93CF9327
:101E7000DF930E946510EC01C11580E5D807F0F5ED
:101E8000C11580E4D80708F09CC0C03ED10520F5FC
:101E9000CD3CD10508F082C0C83AD10578F4C53AE6
:101EA000D10508F073C0C130D10519F1209709F1AF
:101EB000C430D105F0F4D0E0C0E01BC0C33CD10574
:101EC000D0F7C85AD0E0CC0FDD1FC25ADD4F0990C1
:101ED000D881C02DD4640DC0C11580E2D80708F0A8
:101EE000D1C0C11581E0D80708F05AC0C83ED1055D
:101EF00010F7CE01DF91CF911F910895C03682E592
:101F0000D80718F5C03482E5D80708F06BC0C03296
:101F100082E5D80708F05FC0C11582E5D80708F44C
:101F200097C02C2F2695269580E2289F900111249A
:101F30008C2F8370C1E0D0E002C0CC0FDD1F8A95EA
:101F4000E2F7C22BD32BDD68D4CFC03A82E5D807A5
:101F500060F4C03882E5D80708F459C0CF71D0E0EA
:101F6000DC2FCC27C46FD06AC4CFC03C82E5D80731
:101F700008F462C0C03E82E5D80708F09CCFDC2F91
:101F8000CC27CC27DF71C06FD06AB3CFC55AD0E061
:101F9000CC56DD4FC881D0E0D064ABCFD065A9CF9F
:101FA0008D2F0E940711182FCE0199270E946510CE
:101FB000C12FD0E0DC2FCC27CC27DF71C82BD92B49
:101FC00098CFCE0199270E946510CC27DF70C82BCF
:101FD000D92BD06A8ECFCF71D0E0DC2FCC27C16F48
:101FE000D06A87CF2C2F26952695277080E2289FD0
:101FF000900111248C2F8370C1E0D0E002C0CC0F7F
:10200000DD1F8A95E2F7C22BD32BDC6872CF2C2F11
:1020100026952695277080E2289F900111248C2F09
:102020008370C1E0D0E002C0CC0FDD1F8A95E2F7DB
:10203000C22BD32BDA685DCF8C2F8F710E940711D2
:10204000C82FD0E0DC2FCC27CC27DF71D06251CF56
:102050008C2F8F710E94071155E0D695C7955A9520
:10206000E1F7CF70D0E0DC2FCC27282F30E084FFC1
:1020700005C044E0220F331F4A95E1F7C22BD32B52
:10208000D06937CF8D2F8F710E940711182FCE0185
:1020900099270E946510C12FD0E0DC2FCC27CC27D8
:1020A000DF71C82BD92BD2CF462F753030F46E306C
:1020B00020F4672F0E948D03089590E080E008953A
:1020C0000E9454100E94360F089582389105B9F18C
:1020D000B0F48133910509F47DC048F4893291054B
:1020E00009F46DC08A32910509F47BC008958533E7
:1020F000910509F45FC08933910509F10895833E84
:102100009105D9F138F4803E910529F1823E91057F
:1021100079F10895863E9105D9F1873E910509F43C
:102120003EC0843E910541F52091FA0521FF24C06F
:102130008091F90584FD19C087EE90E00895209103
:10214000F905237009F05AC02091FA0523FF14C045
:1021500089E290E008952091F90520FD38C0309182
:10216000FA0530FF09C024FF43C090E080E00895E5
:102170002091F90522FDF7CF08952091F90522FD60
:102180003AC03091FA0530FD39C024FFF5CFEDCFCC
:102190002091F90523FFF0CF24FDE7CFCDCF20918B
:1021A000F90523FD2EC03091FA0531FFEECF84EE04
:1021B00090E008952091F90525FFDECFC9CF209149
:1021C000F90525FD21C02091FA0523FFD5CF89E32C
:1021D00090E0D2CF2091F90526FFCECF8AE290E0A1
:1021E00008952091F90526FFC7CF81E390E0089577
:1021F00083EE90E0089582EE90E0089580EE90E006
:10220000089586EE90E0089585E390E0089590911A
:10221000F90592FF10C041E0282F2471243009F005
:1022200040E031E0282F2871283009F030E04317D2
:1022300011F02CE0822793FF10C041E0282F247179
:10224000243109F040E031E0282F2871283109F0CD
:1022500030E0431711F02CE082273091FA0530FF6F
:1022600010C051E0282F2171213009F050E041E0E9
:10227000282F2871283009F040E0541711F029E088
:10228000822731FF10C041E0282F2171213109F050
:1022900040E031E0282F2871283109F030E0431761
:1022A00011F029E0822794FD877E089580E008954B
:1022B00008950E945811089508950E945C11089590
:1022C000E82FF0E0EE0FFF1FEB5FF94F8081918167
:1022D0000895089580EA8A95F1F7089500C0089559
:1022E0000E946A110895F894E82FE295EF70F0E0EB
:1022F00031A1282F2F7081E090E001C0880F2A952E
:10230000EAF7982F9095932391A392A1892B82A30A
:10231000789408950F931F93CF93DF93C5EAD2E08B
:1023200089918F3F11F00E94731182E0CA3AD80759
:10233000B9F7C7E9D2E005EA12E089918F3F11F0C1
:102340000E9473110C171D07C1F7DF91CF911F91E8
:102350000F910895AF92BF92DF92EF92FF920F9389
:102360001F93CF93DF938C01D62EC62FD0E0CE01E2
:102370008B559D4F7C01FC0120812F3F09F44CC0FF
:10238000F894E22FE295EF70F0E031A12F7081E038
:1023900090E001C0880F2A95EAF7932F982B91A31C
:1023A00092A18095892382A378940E946E11E7E917
:1023B000F2E041E050E0B12CA12C21912F3FB1F18E
:1023C000A22FA295AF70B0E090968C9190E02F7004
:1023D00002C0959587952A95E2F780FD27C0CA012E
:1023E000A82AB92A440F551F82E0E53AF80729F7D1
:1023F000F70180818F3F11F00E94731161E0A114F9
:10240000B10409F460E08D2D0E947011CC0FDD1F26
:10241000C00FD11FB982A882DF91CF911F910F9178
:10242000FF90EF90DF90BF90AF90089590E080E034
:10243000D7CF0E948A118AE0E5E0F6E0DF01982F0D
:102440001D929A95E9F7EBEFF5E0DF011D928A9571
:10245000E9F785E00E946A120E9459110895AAE0E6
:10246000B0E0E5E3F2E10C94D2328E010F5F1F4F32
:102470008AE0F80111928A95E9F7F12C6F2DC801D5
:102480000E94AA11F394F5E0FF12F8CF4AE050E061
:10249000B8018BEF95E00E94053321E0009709F425
:1024A00020E0892B41F08AE0F801ABEFB5E0019024
:1024B0000D928A95E1F745E065E076E08BEF95E0D7
:1024C0000E946B12182F0E945D11812F2A96E5E061
:1024D0000C94EE320895B0E0A0E0E1E7F2E10C9454
:1024E000CF326C017B01042FC22F222379F081E0CF
:1024F000809397030E94652A909396038093950397
:1025000080E0CDB7DEB7E8E00C94EB32D0919703D2
:10251000DD23B1F380919503909196030E947D2A6B
:10252000039770F310E0000F111FA801B601C70157
:102530000E940533892B31F0A801B601C7010E9422
:102540001233CD2F109297038C2FDBCF0E94BA0E3F
:1025500008950E94FE290E94122D0E94770E0E946B
:102560002C2D0E94AD0E0E94392D0E943E2D0E94FE
:10257000A6120E94582D0E948A0EF7CF9093BB029C
:102580008093BA020895EF92FF920F931F93CF9317
:10259000DF93EB01E82FD1110EC0442321F0F0E0CE
:1025A000E852FC4FE4916E2F7E2F8E2FCDB7DEB711
:1025B000E6E00C94ED320D2F10E0282F30E044239C
:1025C00029F028523C4FF901249130E0F6E0CF9FEA
:1025D000C0011124EFEFF0E0BF010E945632AB01C1
:1025E0008C2F90E0880F991FA5E5A49FB001A59FAF
:1025F000700D1124861B970B982F990F980FBF0110
:10260000601B710B629FD001639FB00D729FB00D74
:1026100011248B2F9D9FB0011124672F7727EF0185
:10262000C61BD70BBE01629FE001639FD00D729F56
:10263000D00D11247F01E91AF108E09EB001E19E5E
:10264000700DF09E700D1124672F7727E61BF70B96
:10265000E29F8001E39F100DF29F100D1124E12FE6
:10266000722F4230510599F048F44115510569F037
:102670004130510581F0EB2F8D2F07C044305105BB
:1026800069F080F046305105B1F76E2F8FCFE22F01
:102690007B2F812FFACFE22F7D2FF7CFEB2F822FC9
:1026A000712FF3CF7B2F822FED2FEFCF41E00E94D0
:1026B000C312089530E020E0869F212D969F200DC3
:1026C000311D1124C9010895AC018230910508F42F
:1026D00008959FEF413E8EE1580740F49A0195E03E
:1026E000369527959A95E1F798E0920F61E0E62FED
:1026F000E90FFF27FF1F9F0135952795822F229F06
:10270000F001239FF00DF00D11244E175F0738F4F0
:102710009FEF920F961758F78FEF860F08952F3F70
:10272000E9F361E0620FF6CF40910D0250910E0285
:1027300025E038E0429FC001439F900D529F900DCD
:102740001124875E994C90930E0280930D02890F9D
:102750000895E82F86FDE0952E2F2F7086FD2F5FC0
:10276000E695E695E695E670F0E0E655FD4F918139
:10277000929F902D212D112492959F702295207F5C
:10278000922B2081920F87FD919580E8890F089503
:10279000E42FF0E0EE0FFF1FEA5BFE4F408134EEC6
:1027A000439F412D1124E82FF0E050E0445E5F4F3D
:1027B000DA01A21BB1099D01B7FF03C03195219534
:1027C000310993E0220F331F9A95E1F7AF01421BC5
:1027D000530B9A0157FD20E0582F259F212D1124DE
:1027E000822F0895622F0895E42FF0E0EE0FFF1F6F
:1027F000EA5BFE4F6081621B0895E42FF0E0EE0F6C
:10280000FF1FE95BFE4F6081621B0895322F50E08D
:10281000FA01EE0FFF1FE95BFE4F9081905297FD8A
:102820009195440F551FFA01EA5BFE4F2081231B4F
:10283000330B290F311D97FD3A95620F0895EF92E2
:102840000F93972F23E0029FB00111247595679590
:102850006E0D792F0F91EF9008950F93CF93DF9323
:10286000D72FC82F47FD419588E390E0841B91093D
:1028700047FD9395889FB001899F700D700D1124BD
:10288000229FC001239F900D900D1124860F971F4A
:102890000E946413982F990F890F682F600F7D2F66
:1028A0008C2FDF91CF910F9108950F931F93522F8B
:1028B00010E0F801EE0FFF1FE95BFE4FA081A05270
:1028C000BB0B9D015203F001539FF00D1124000F2B
:1028D000111FD801AA5BBE4F0C910057110B40038A
:1028E0009001419F300D11242E0F3F1F37FF02C072
:1028F00021583F4F220F232F221F330B620F1F91AE
:102900000F9108950F931F93522F10E0F801EE0FCF
:10291000FF1FE95BFE4FA081A052BB0B9D0152033C
:10292000F001539FF00D1124000F111FD801AA5B75
:10293000BE4F0C910057110B40039001419F300D89
:1029400011242E0F3F1F37FF02C0215C3F4F96E03E
:10295000359527959A95E1F7620F1F910F9108958C
:102960000F931F9310E0F801EE0FFF1FEA5BFE4F7D
:102970009081905797FD9195000F111FF801E95B29
:10298000FE4F00810052110B2003F001219FF00D3A
:10299000112408E310E0091B110997FD139540036A
:1029A0009001419F300D1124E20FF31F9F01220F70
:1029B000331F2E0F3F1F37FF02C021583F4F220FFA
:1029C000232F221F330B620F1F910F9108950F9336
:1029D0001F93CF93DF938B01D82FC42F822F0E9498
:1029E000A913EC2FF0E0EE0FFF1FEA5BFE4F908182
:1029F0009058890F87FD8195880F682F2CE0629F82
:102A0000612D1124600F712F8D2FDF91CF911F91B8
:102A10000F910895E42FF0E0EE0FFF1FEA5BFE4FE9
:102A20009081921B97FD9195292F38E1239F212DAD
:102A30001124620F08952091130630E1230F08F44A
:102A40002FEF60E1822F90E00E945A13BC0188EBC7
:102A50009BE00E94563290E080E008954095282F38
:102A6000429F412D1124842F0895409520E4429FD8
:102A7000412D1124640F089590918404892B809333
:102A800084040895FC019B01009729F480E077FFFE
:102A90002BC080E80895AC0197FF04C04427552758
:102AA000481B590BB901640F751F37FD10C0241B5B
:102AB000350BC901A5E0880F991FAA95E1F70E947F
:102AC0006A3280E2861BF7FF0FC081950895CB0123
:102AD00065E0880F991F6A95E1F7BA01621B730BD5
:102AE0000E946A3280E6EECF08950F931F93CF9332
:102AF000DF93D62FC72F182FC901212F201B022F9C
:102B0000BA010E944215982F990F990F891B800FC7
:102B1000282F219F212D1124822F6D2F7C2FDF91B3
:102B2000CF911F910F910895EF920F931F93CF9321
:102B3000DF93D62FC72F182FC9010E19010FBA0125
:102B40000E944215081B202F219F212D1124822F26
:102B50006D2F7C2FDF91CF911F910F91EF900895F2
:102B60000F93CF93DF93D72FC82FC901BA010E94CB
:102B70004215682F600F7D2F8C2FDF91CF910F9121
:102B80000895EF920F93CF93DF93D72FC82FC901EA
:102B90000E19BA010E944215602F681B7D2F8C2FE1
:102BA000DF91CF910F91EF90089548E050E067E1F9
:102BB00070E08FE096E00E9439331092840408950B
:102BC0000E9456130895B0E0A0E0E9EEF5E10C9400
:102BD000C832782E662E862F90E02EE0729E8001FD
:102BE0001124F801E050FF4FE80FF91FC081CF3FDB
:102BF000A9F1B12CA12C812CD0E09E01220F331F12
:102C0000A9014A5B5E4F6A01E901C95BDE4F0D54C1
:102C10001B4F080F191F7501912C88E2582EF701E0
:102C2000E050FF4F80818F3F59F078101CC0691031
:102C30001AC0F801208130E2230F08F42FEF20831F
:102C400093944FEFE41AF40A5EE09512E8CF839470
:102C50008EE0A80EB11CE5E08E12DDCFCDB7DEB759
:102C6000EFE00C94E43290E0F6012081FC01EE0FDD
:102C7000FF1FEA5BFE4F3081231B330B4881880F17
:102C8000991FFC01E95BFE4F8081481B550B229F79
:102C9000B001239F700D700D1124449FC001459F0A
:102CA000900D900D1124860F971F0E946413893296
:102CB00038F6252D382F231B08F420E0F701ED54BA
:102CC000FB4F213108F020E13081320F08F43FEF53
:102CD0003083B6CFEFE0F6E085E280838091220278
:102CE00090912302A091240281839283A3838FE792
:102CF00084838FEF85830E94D515089580E0089521
:102D00000F931F93CF93DF93C82FD62F8A010E9472
:102D10007E169EE0C99FB001112460507F4F6D0F59
:102D2000711DFB0190819F3F29F0F801E80FF11D13
:102D300090838F5FDF91CF911F910F910895E09164
:102D4000B802F091B90209950895E091B402F091AA
:102D5000B50209950895B0E0A0E0E1EBF6E10C942E
:102D6000D0328C01FC01EC53FE4F8081682349F185
:102D7000D0901106D0911206C0911006EC2EF12CC5
:102D80000E949413282FC7018C549F4F68E671E06E
:102D90000E946A328E199F0997FD03969595879533
:102DA0009595879523706C2F289F600D11247D2D9C
:102DB0008D2F0E94E015462F282F672FC8010E94F3
:102DC000A516CDB7DEB7E7E00C94EC321F93CF9396
:102DD000DF93EC01FC01EC53FE4F80816823B1F0DE
:102DE0000E949413182F0E94941320E8829FC00120
:102DF00011247FE7790F612F809112060E94E01560
:102E0000462F282F672FCE010E94A516DF91CF9164
:102E10001F910895E091B602F091B70209950895C7
:102E2000A8E0B0E0E6E1F7E10C94CD32C82EB62E72
:102E3000A42E0E94800E882309F457C0D12CAA200A
:102E400041F0AE014F5F5F4F6B2D8C2D0E948016BD
:102E5000D82E0D2D10E080918504800F912F911DAB
:102E600009976CF188E090E07C01E01AF10AB80162
:102E70006A577B4FA70186E894E00E941233B8019D
:102E800062577B4FA7018EE894E00E941233A7019E
:102E9000440F551FB801660F771F62567B4F8EE9AE
:102EA00094E00E941233B8016A567B4FA70186E96D
:102EB00094E00E94123388E08D198093850410916C
:102EC0008504DE01119640E0842F810FD41211C0D9
:102ED00080938504AA2049F080910F068C7F8C3660
:102EE00021F46B2D8C2D0E94E3152896EAE00C94BA
:102EF000E9325D91252F30E090E0BC016B577B4FAC
:102F0000F901EE0FFF1FEA5BFE4F0081FB01018319
:102F1000220F331FF901E95BFE4F2081FB0121875E
:102F2000518B880F991FFC01EB57FB4F128E118EAE
:102F30004F5FCACF81E008959DE0899F802D1124C5
:102F4000980F903408F09FE30895B0E0A0E0EBEA1A
:102F5000F7E10C94C9325C014B01FC0180810E94B5
:102F60009C17C82F192F609113066695809117063C
:102F7000909118060E945A13F82ED0E0C11748F01D
:102F800081E01F3308F080E0CDB7DEB7EEE00C94AF
:102F9000E532FE01EC53FE4F8081F50191818923DA
:102FA000C9F1CE01880F991F80509F4FFC01EA5B49
:102FB000FF4F2081422F4057550B6A01895B9F4F7D
:102FC000FC018081282F2052330B3901449F90014E
:102FD000459F300D300D1124669CC001679C900DFB
:102FE000900D1124820F931F0E946413082F60918B
:102FF00010067091110680911206EF2C9301A60124
:10300000F40109950E94E015462F282F672FCE0165
:103010000E94A5162196B2CF64E975E10E94A5171A
:1030200008956FE174E10E94A517089561EC75E1C0
:103030000E94A5170895B0E0A0E0E1E2F8E10C9449
:10304000CE326C017B01FC0180810E949C17C82F4D
:10305000192F6091130666958091170690911806B6
:103060000E945A13B82ED0E0C11748F081E01F33F8
:1030700008F080E0CDB7DEB7E9E00C94EA32FE015B
:10308000EC53FE4F8081F6019181892311F1CE012D
:10309000880F991F80509F4FFC01E95BFF4F2081F3
:1030A0002052330B8A5B9F4FFC0140814057550BE8
:1030B0006091100670911106809112060B2DF70198
:1030C00009950E94E015462F282F672FCE010E94F8
:1030D000A5162196C9CF65E775E10E941B180895D2
:1030E0006DE274E10E941B18089560EB75E10E9487
:1030F0001B180895B0E0A0E0E0E8F8E10C94CF32AE
:103100007C018B01FC0180810E949C17C82FD92E65
:10311000609113066695669521E0620F08F46FEFE3
:1031200080911706909118060E945A13C82ED0E07D
:10313000CD1550F081E09EE39D1508F480E0CDB7F9
:10314000DEB7E8E00C94EB32FE01EC53FE4F8081D9
:10315000F7019181892391F0609110067091110619
:10316000809112062C2D4C2FF80109950E94E01534
:10317000462F282F672FCE010E94A5162196D8CF63
:1031800068EC73E10E947A18089562EF73E10E947F
:103190007A18089564EF73E10E947A1808956DEF2C
:1031A00073E10E947A18089566E074E10E947A182B
:1031B000089567EE74E10E947A1808956AE075E157
:1031C0000E947A180895B0E0A0E0E9EEF8E10C94CE
:1031D000CB325C016B01FC0180810E949C17C82FDF
:1031E000F92E609113066695669580911706909169
:1031F00018060E945A13182F80E4810F0E94A91309
:1032000090E8992E980E812F0E94A91320E8822E13
:10321000880ED0E0CF1550F081E09EE39F1508F4B2
:1032200080E0CDB7DEB7ECE00C94E732FE01EC5362
:10323000FE4F8081F50191818923A1F060911006F4
:103240007091110680911206E12E0C2F282D492D28
:10325000F60109950E94E015462F282F672FCE0111
:103260000E94A5162196D6CF65E574E10E94E31869
:10327000089562E874E10E94E318089560EB74E138
:103280000E94E3180895B0E0A0E0E9E4F9E10C94AD
:10329000CE328C017B01FC0180810E949C17C82FDB
:1032A000B92E2091130631E0230F08F42FEF30E000
:1032B00050E040E06FEF7FEF80E090E00E94A032AE
:1032C0006901D0E02C2FCB1550F081E0FEE3FB1517
:1032D00008F480E0CDB7DEB7E9E00C94EA32FE01F5
:1032E000EC53FE4F8081F8019181892311F14091C7
:1032F0001B064150042E000C550B47FF1CC0C60195
:103300006091130621E0620F08F46FEF0E945A13D8
:10331000AC01609110067091110680911206F701C0
:1033200009950E94E015462F282F672FCE010E9495
:10333000A5162196C7CFFA01E55EF94F8189821360
:103340000AC0FA01EE0FFF1FE55EF94F818D928DE5
:103350008C159D05A8F241505109CFCF6EE275E161
:103360000E944319089565E375E10E944319089589
:10337000B0E0A0E0EEEBF9E10C94CF327C01FC016F
:1033800080810E949C17C82F192F609110067091A0
:103390001106809112060E94E015062FD72EC82E26
:1033A000D0E0C11748F081E01F3308F080E0CDB7CE
:1033B000DEB7E8E00C94EB32FE01EC53FE4F808167
:1033C000F7019181892331F02C2D402F6D2DCE01F5
:1033D0000E94A5162196E5CFB0E0A0E0E2EFF9E16A
:1033E0000C94CC327C01FC0180810E949C17C82F78
:1033F000192FD090110600911206D09110066D2F52
:103400007D2D802F0E94E015C62EB72EA82E60912C
:1034100013066D0F7D2D802F0E94E015062FD72EED
:10342000982ED0E0C11748F081E01F3308F080E00B
:10343000CDB7DEB7EBE00C94E832FE01EC53FE4F63
:103440009081F7018181892359F0292D402F6D2D1D
:1034500090FD03C02A2D4C2D6B2DCE010E94A51688
:103460002196E0CFB0E0A0E0E8E3FAE10C94CF329F
:103470007C01FC0180810E949C17092FD0901106CD
:10348000C09012062091130610E4129F112D1124F2
:10349000C82FD0E0C01748F081E00F3308F080E07B
:1034A000CDB7DEB7E8E00C94EB32FE01EC53FE4FF3
:1034B0008081F70191818923D9F0FE01EE0FFF1F72
:1034C000EA5BFE4F6081169FB001112495E075956F
:1034D00067959A95E1F780911006680F7D2D8C2DE8
:1034E0000E94E015462F282F672FCE010E94A516B7
:1034F0002196D0CFB0E0A0E0E0E8FAE10C94CF3222
:103500008C01FC0180810E949C17C82FF92EE0904D
:103510001006D0911106D0901206609113066695A0
:103520006695669580911706909118060E945A1329
:103530000E94A913805887FD8195880F282F3D2D63
:10354000239F212D1124822F6E2D7D2F0E94E015A7
:10355000E62ED72EC82ED0E0CF1550F081E02EE316
:103560002F1508F480E0CDB7DEB7E8E00C94EB321D
:10357000FE01EC53FE4F8081F8019181892331F0E7
:103580002C2D4E2D6D2DCE010E94A5162196E4CF37
:10359000CF92DF92FF920F931F93CF93DF938C0113
:1035A000FC0180810E949C17F92EF80192819111F3
:1035B0002BC06091130620E1620F08F46FEF809139
:1035C0001706909118060E945A136AE070E00E9454
:1035D0005632892B61F40E949413FFE38F9FC00140
:1035E0001124F8016181892F90E00E94AB1681E0DF
:1035F000FEE3FF1508F480E0DF91CF911F910F915A
:10360000FF90DF90CF900895C82FD0E0CF2CD12C21
:10361000CC15DD0564F7F8016181CE010E94AB167F
:103620002196F6CFCF92DF92FF920F931F93CF9305
:10363000DF938C01FC0180810E949C17F92EF80118
:10364000928191112BC06091130620E1620F08F462
:103650006FEF80911706909118060E945A1365E04B
:1036600070E00E945632892B61F40E949413FFE3AC
:103670008F9FC0011124F8016181892F90E00E9481
:10368000E61681E0FEE3FF1508F480E0DF91CF91BC
:103690001F910F91FF90DF90CF900895C82FD0E039
:1036A000CF2CD12CCC15DD0564F7F8016181CE015A
:1036B0000E94E6162196F6CFB0E0A0E0E2E6FBE13C
:1036C0000C94CF328C01FC0180810E949C17C82F82
:1036D000F92ED0901106E0901206D091100660915C
:1036E0001306669566956695809117069091180663
:1036F0000E945A130E94A913805887FD8195880F54
:10370000682F2CE0629F612D11246D0F7D2D8E2D71
:103710000E945613E62ED72EC82ED0E0CF1550F0BB
:1037200081E09EE39F1508F480E0CDB7DEB7E8E0C6
:103730000C94EB32FE01EC53FE4F8081F801918135
:10374000892331F02C2D4E2D6D2DCE010E94A51612
:103750002196E4CFB0E0A0E0E0EBFBE10C94C932AD
:103760007C01DC018C910E949C17682E992EF70138
:103770008281882361F040E060E080E00E940A17C7
:10378000E3EBF4E086E4DF011D928A95E9F7F701A7
:103790008081811115C08091FA049091FB040E94F0
:1037A0007D2A21E08931910508F420E02093F90475
:1037B000499730F00E94652A9093FB048093FA04A5
:1037C000B12C00E0A12C8EE0782E9AEA892E05C05B
:1037D0008CE08A1508F457C000E0802F90E07B9CB5
:1037E000E00111249E0120503F4F6901C80ED91EEF
:1037F000D601EC91E61508F43EC0E91508F03BC08F
:10380000A394F0E0EC53FE4F2081F7013181232394
:1038100009F431C0CD54DB4FC80FD91F1881212FB7
:1038200035E5231B08F420E0682D621B709111061A
:10383000282D210F08F42FEF30911206822F880FC8
:10384000820F8E5F282F239F212D1124822F0E940B
:10385000E015462FD6019C91282F672F892F90E0E5
:103860000E94A5168091F904882329F021E0121BFB
:1038700008F410E018830F5F0E3009F0AECFB39458
:1038800035E0B312A5CF81E09EE3991508F480E0FE
:10389000CDB7DEB7EEE00C94E532A5E0B0E0E3E5AD
:1038A000FCE10C94C532782E80910B02871124C064
:1038B00090910F06937020910C0230E081E09217F6
:1038C000130609F480E0817080930A028091140647
:1038D00090910902981739F08093090240E060E066
:1038E00080E00E940A172DE1271598F0E72DF0E0FF
:1038F000E558FC4C0C94BF3281E0E5CF30910A02D0
:103900003983332309F4E2C040E060E080E00E94A4
:103910000A171982DBC088E092E00E94B8198983F7
:10392000D5C088E092E00E94EC19F9CF88E092E0DF
:103930000E94321AF4CF88E092E00E947A1AEFCF08
:1039400088E092E00E94C018EACF88E092E00E94EE
:103950006B18E5CF88E092E00E940C18E0CF88E079
:1039600092E00E94C518DBCF88E092E00E94CA185E
:10397000D6CF88E092E00E94CF18D1CF88E092E0C5
:103980000E94D418CCCF88E092E00E941118C7CFD3
:1039900088E092E00E947018C2CF88E092E00E9416
:1039A0007518BDCF88E092E00E941618B8CF88E065
:1039B00092E00E943419B3CF88E092E00E94391956
:1039C000AECF88E092E00E943E19A9CF88E092E055
:1039D0000E94C81AA4CF88E092E00E94121B9FCFD9
:1039E00088E092E00E945C1B9ACF88E092E00E94FF
:1039F000D91895CF88E092E00E94DE1890CF809190
:103A000008020E949C17192F409117065091180622
:103A10006091190670911A0680918004909181043A
:103A2000A0918204B091830484179507A607B70775
:103A300008F047C00E949413EFE38E9FD001112439
:103A40002B2F33273D832C83F901EC53FE4F8081CC
:103A5000909109028923A9F10E94941381FF4EC01D
:103A600000E070E080E0602F0E94E015462F282FD4
:103A7000672F8C819D810E94A5162091130630E14D
:103A8000230F08F42FEF60E1822F90E00E945A1379
:103A9000BC0184EF91E00E9456328091170690910C
:103AA0001806A0911906B0911A06860F971FA11D3E
:103AB000B11D8093800490938104A0938204B093FD
:103AC000830481E089831F3308F023CF80910802AB
:103AD0008F5F80930802E981E1110CC082E080933E
:103AE000070280910A02811105C0711003C083E0B2
:103AF000809307022596E2E10C94E1320E94941330
:103B0000082F0E94941330E8839FC00111247FE79F
:103B1000790F80911206A7CF40917C0450917D04CB
:103B200060917E0470917F04809117069091180631
:103B3000A0911906B0911A0684179507A607B70732
:103B400008F4E7CE80910A028823E9F040E060E0C3
:103B500080E00E940A170FEB13E01D821C820E9476
:103B6000941381FF2FC0D8011C9211961C921197BB
:103B700012961C92EC81FD813196FD83EC830D5FE2
:103B80001F4FFF9761F7809108020E949C17092F31
:103B9000C82ED12C93E0899F9001112421543C4FD1
:103BA0003D832C83C01678F121E029830F3308F080
:103BB00019820F3308F48ACF20E0802F8150990BAF
:103BC0007C0153C00E949413D82E0E949413B0E835
:103BD0008B9FC00111247FE7790FEC80FD80EE0CF4
:103BE000FF1CEC81FD81EE0EFF1E970121543C4F1E
:103BF00079016D2D809112060E945613D7016D93A5
:103C00007D938C93B7CFF601EC53FE4F808190915A
:103C10000902892359F0AC81BD8112962C9112972B
:103C20004C9111966C91C6010E94A516EC81FD8104
:103C30003396FD83EC83FFEFCF1ADF0AB3CFFC018D
:103C4000EE0FFF1FE80FF91FE154FC4F0196DC0156
:103C5000AA0FBB1FA80FB91FA154BC4F8D919D91F6
:103C6000AC9180839183A2832F5F822F90E08E1589
:103C70009F052CF30E9494138701000F111F81FFF1
:103C800021C00E0D1F1DF801E154FC4F108211825E
:103C900012820E941B1500911706109118062091A0
:103CA000190630911A06DC01CB01800F911FA21F6B
:103CB000B31F80937C0490937D04A0937E04B09303
:103CC0007F0404CF0E9494138A830E949413A0E877
:103CD0008A9FC00111247FE7790F0E0D1F1D01542B
:103CE0001C4F6A81809112060E945613F80160836E
:103CF00071838283CECF80910A02882329F040E02D
:103D000060E080E00E940A17809108020E949C17E0
:103D10009B83409117065091180660911906709187
:103D20001A068091BB039091BC03A091BD03B09192
:103D3000BE0384179507A607B70708F0ADC06091CA
:103D4000100670911106809112060E94E015362E21
:103D50007A83282E08E913E020E031E03D832C83AC
:103D6000AC80BD809EE0A90EB11C8C809D80650159
:103D700078011982D7018D917D01412C612C512C44
:103D8000882319F0422C632C5A80D401ED914D0107
:103D9000F0E0DF01AC53BE4F9C9180910902982363
:103DA00031F0242D452D662DCF010E94A516D60198
:103DB000EE916D01F0E0DF01AC53BE4F9C9180911C
:103DC0000902982331F0242D452D662DCF010E9444
:103DD000A516F701808131978083F981FF5FF98310
:103DE000F63041F6D80116968C91D12CF12CE12CAD
:103DF000882319F0D22CF32CEA80AC81BD81169671
:103E0000EC91F0E0DF01AC53BE4F9C918091090230
:103E1000982331F02D2D4E2D6F2DCF010E94A51628
:103E2000AC81BD811796EC91F0E0DF01AC53BE4F41
:103E30009C9180910902982331F02D2D4E2D6F2DEC
:103E4000CF010E94A5160E949413837091E009F09F
:103E500090E0F8019683095F1F4FBD82AC82950107
:103E60002654314009F07CCF0E941B1500911706A3
:103E7000109118062091190630911A06DC01CB0129
:103E8000800F911FA21FB31F8093BB039093BC03AD
:103E9000A093BD03B093BE03A1E0A983BB81BF3350
:103EA00008F414CE36CD88E092E00E94AA1B37CDEC
:103EB00088E092E00E94AE1932CD88E092E00E9444
:103EC000B3192DCD81E008950E94621F0895FC0171
:103ED000808181500E949C17692F0E94641F089561
:103EE0004F925F926F927F928F929F92AF92BF920A
:103EF000CF92DF92EF92FF92CF936091AE047091D8
:103F0000AF048091B0049091B1040E948C2A6B019F
:103F10007C010E94712A4B015C018092AE04909258
:103F2000AF04A092B004B092B104A0918504E5E87A
:103F3000F4E08A2F90E04FEF5FEF60E070E04C1903
:103F40005D096E097F09A9132AC0809385048091B9
:103F5000B204C0E0811108C080910F06C82FC37061
:103F600019F0C82FC695C69580910702813009F4D3
:103F700040C0882339F1823009F44BC0833009F402
:103F800053C0CF91FF90EF90DF90CF90BF90AF9054
:103F90009F908F907F906F905F904F900895218DAC
:103FA000328D2901712C612C441555056605770564
:103FB00020F481509F5F3296C6CF2C0D3D1D328F6D
:103FC000218FF8CF1092080280921706909218065F
:103FD000A0921906B0921A0689E2E5E8F4E0ABE196
:103FE000B6E001900D928A95E1F781E08093070297
:103FF000C8CF8C2F0E944D1CCC2319F28091070250
:10400000823011F40E945D0388E092E00E94671FF5
:10401000B8CFC0930B0280910F06837080930C027F
:104020000E949F1683E0E2CF8091840481110E9458
:10403000D515609117067091180680911906909118
:104040001A060E948C2A603171058105910508F4D9
:1040500098CF1092070295CFE091B202F091B3028F
:10406000099510921B068FEF9FEF90933506809372
:1040700034069093370680933606909339068093E2
:10408000380690933B0680933A0690933D068093C2
:104090003C0690933F0680933E06909341068093A2
:1040A00040069093430680934206109285049093B5
:1040B0009F0480939E049093A1048093A004909306
:1040C000A3048093A2049093A5048093A4049093E6
:1040D000A7048093A6049093A9048093A8049093C6
:1040E000AB048093AA049093AD048093AC0481E068
:1040F0008093840448E050E067E170E08FE096E050
:104100000E941B331092840480910F068C7F11F45F
:104110000E946A160895CF93C82F882391F080914A
:10412000B20481110EC00E944D1C10920B028091AE
:104130000F06837080930C020E949F1683E0809389
:104140000702C093B204CF910895EFE0F6E09081AA
:1041500021E092279083109207020E943C15089557
:1041600081E00E94A520089590910F06937051F070
:10417000811109C0946090930F0610920702862F58
:104180000E943C1508958E3110F09467F4CF282FCB
:10419000220F220F922BEFCF61E00E94B4200895EE
:1041A000682F90910F069695969581E0890F8E3134
:1041B00008F081E00E94B420089581E00E94D020A0
:1041C0000895682F90910F06969596958FEF890F19
:1041D00009F48DE10E94B420089581E00E94E1205D
:1041E000089590910F06937049F0809310066093A4
:1041F000110640931206822F0E943C150895AFE0ED
:10420000B6E01196EC911197F0E0282F13964C919F
:10421000139712966C91CF0108960E94F120089591
:1042200081E00E94FF200895EFE0F6E09181282FC1
:1042300043816281E92FE850FF0BCF010E94F120FA
:10424000089581E00E9414210895EFE0F6E0628174
:1042500020E1620F08F46FEF9181282F4381892FAD
:1042600090E00E94F120089581E00E9425210895A8
:10427000EFE0F6E0628120E1621B08F460E09181EA
:10428000282F4381892F90E00E94F120089581E03A
:104290000E9438210895EFE0F6E0438120E1420FCB
:1042A00008F44FEF9181282F6281892F90E00E94BE
:1042B000F120089581E00E944B210895EFE0F6E09F
:1042C000438120E1421B08F440E09181282F628164
:1042D000892F90E00E94F120089581E00E945E21E4
:1042E0000895EFE0F6E0248130E1230F08F42FEF8A
:1042F00024830E943C15089581E00E947121089555
:10430000EFE0F6E0248130E1231B08F420E0248371
:104310000E943C15089581E00E9480210895A1E04B
:10432000B0E0E5E9F1E20C94D332698304E610E0F1
:1043300021E030E0AE014F5F5F4F682F80EA0E94BE
:10434000812B2196E4E00C94EF32CF93C62F65ECDD
:104350008EEF0E948F216C2F8DEF0E948F21CF91C5
:104360000895FF920F931F93CF93DF939AED899F48
:10437000E0011124C450DB4FF12C04E610E020E1F1
:1043800030E0AE016F2D80EA0E94812B80E1F80EB3
:10439000609690ECF912F1CFCDB7DEB7E5E00C9462
:1043A000EE32CF93DF93D82F60E00E94A521C0E0CA
:1043B00060E08C2F0E948F21CF5FC831C9F761E088
:1043C0008D2F0E94A521C0E060E08C2F0E948F21DC
:1043D000CF5FC03CC9F763E08D2F0E94A52160E04C
:1043E0008FE00E948F2160E080E10E948F216FEFBB
:1043F00081E00E948F2161E080E00E948F218FE3A5
:104400009CE90197F1F700C00000DF91CF9108957A
:10441000A4E0B0E0EEE0F2E20C94D132F62E042FEC
:10442000122F8F33910508F047C0880F991F880F0E
:10443000991FBC0164557F4F44E050E0CE010196C6
:104440000E94FC32898183702A8130E0482F50E03D
:104450006AED869FC001112484509B4FFC01E20F3E
:10446000F31F6081AB81EC806F110DC0BC016A0F3E
:10447000711DFB016081601306C08E0D911DFC0152
:1044800080818117C9F06AED649FC001659F900D1E
:10449000112484509B4F280F391FF901F082A80F77
:1044A000B92FB11D0C93FC01EE0DF11D108380544A
:1044B0009F4F21E0FC0120832496E6E00C94ED322E
:1044C000FF920F931F93CF93DF93182F062FF42E95
:1044D000D0E0C0E02F2D402F612FCE010E94082296
:1044E0002196CF33D105B1F7CDB7DEB7E5E00C9417
:1044F000EE32A4E0B0E0EFE7F2E20C94D232F62E16
:10450000042F122F24E0829FB001112464557F4FA5
:1045100044E050E0CE0101960E94FC329A817B81FA
:10452000F72FF695F695F6956C81E62FE695E695CC
:10453000E69577706770A92FA695A695A695B0E029
:10454000977021E030E001C0220F9A95EAF7898147
:10455000982F93704AED949FA00DB11D1124A35480
:10456000BA4FFF2009F442C09C91922B9C93837018
:10457000482F50E02AED829FC001112484509B4FA8
:104580008F0F911DDC01AF53BF4F9C9121E030E0B4
:1045900001C0220F7A95EAF7002369F1292B2C93A9
:1045A0002AED249FC001259F900D112484509B4F1C
:1045B000E80FF92FF11DEF53FF4F208181E090E0CC
:1045C00001C0880F6A95EAF71123C1F0822B80831E
:1045D0008AED849FF001859FF00D1124EB52FA4F74
:1045E00081E080832496E5E00C94EE32922F909542
:1045F0002C919223BBCF20952923D1CF8095822364
:10460000E6CF1F93CF93DF93182F8AED189FE00119
:104610001124C454DA4F8881882341F061E0812F4E
:104620000E94A521812F0E94B1211882DF91CF9194
:104630001F910895EF92FF921F93CF93DF93C82F9E
:10464000E82EF12CDAEDDE9DF001DF9DF00D112456
:10465000EB52FA4F80818823D1F060E08C2F0E94CA
:10466000A521CD9FE0011124C354DA4F10E06991D8
:10467000812F0E948F211F5F1831C9F78AED8E9D0F
:10468000F0018F9DF00D1124EB52FA4F1082DF9153
:10469000CF911F91FF90EF900895CF930E944D2BE3
:1046A00080E00E94D121C0E021E041E061E08C2F58
:1046B0000E947922CF5FCF33B9F780E00E941A239E
:1046C000CF91089580E00E9401230895FA0181119D
:1046D00001C0FB01099508951F93CF93DF93EC016F
:1046E000FB011581111110C00E946A0C8272FE013B
:1046F000E052F847E531F10508F049C0E756FC4CB7
:104700000C94BF320E94B020812FDF91CF911F9176
:1047100008954DEE50E26DED70E20E946623F4CFF5
:104720004DED50E26DEE70E2F8CF41E251E260E112
:1047300071E2F3CF40E151E261E271E2EECF47E492
:1047400051E264E371E2E9CF44E351E267E471E2EC
:10475000E4CF4DE651E26AE571E2DFCF4AE551E28E
:104760006DE671E2DACF4BE851E26CE771E2D5CF4A
:104770004CE751E26BE871E2D0CF81E00E94CC209F
:10478000C3CF84E0FBCF89E0F9CF8EE0F7CF11E013
:10479000BBCF0E948C0D089580E00E946011817053
:1047A00008950E942F128FEB9DE50197F1F700C04D
:1047B00000000E942F120E94CC23882321F00E9427
:1047C000C9230E94CC2A08950E94D1230895CF9333
:1047D000DF93EB0186319C4711F50E946A0C9D81A5
:1047E000992399F08A7A91E009F490E09093D605A4
:1047F000811109C089E20E944A290E941E0D80E0B1
:10480000DF91CF91089585E3F6CF8091D605811190
:1048100004C089E20E946129F0CF85E3FBCF81E0EB
:10482000EFCFCF93DF93EC01FB018581882309F45F
:10483000D2C09E0130572332310508F0B2C00E9429
:10484000A80D9093FA058093F905FE01E150F04719
:10485000E232F10520F4E255FC4C0C94BF32809119
:10486000F90581608093F90593C08091FA0588600D
:104870008093FA058DC08091F9058260F3CF809115
:10488000F9058460EFCF8091F9058860EBCF8091C6
:10489000FA058160EDCF8091FA058260E9CF8091C1
:1048A000F9058061DFCF8091F9058062DBCF8091CF
:1048B000F9058064D7CF0E94EE078091F9058068E2
:1048C000D1CF8091F9058C60CDCF8091FA058360BE
:1048D000CFCF8091F9058E7FC5CF8091FA05877F74
:1048E000C7CF8091F9058D7FBDCF8091F9058B7F72
:1048F000B9CF8091F905877FB5CF8091FA058E7F7A
:10490000B7CF8091FA058D7FB3CF8091F9058F7E67
:10491000A9CF8091F9058F7DA5CF8091F9058F7B77
:10492000A1CF0E94EE078091F9058F779BCF8091F0
:10493000F905837F97CF8091FA058C7F99CF80917D
:10494000F90582FB992790F921E0922790FB82F9E3
:1049500090FB83F987CF8091FA05982F90959170FD
:104960008E7F892B90FB81F983CF9091F905892F58
:104970008F7B96FF806476CF0E94EE079091F905B9
:10498000892F97FB87F980586DCF81E00E94310E07
:104990008091F9059091FA050E94AD0D0E94EE07F5
:1049A00080E0DF91CF91089580E0F0CF9091F905FC
:1049B000892F8F7E94FF806155CF9091F905892FC3
:1049C0008E7F90FF81604ECF9091FA05892F877F6F
:1049D00093FF88604DCF81E0E4CF282F35EB230390
:1049E000C001112497FF04C080589109892F0895B0
:1049F00080589F4FFBCF8091DD0580FF0DC06091F7
:104A0000140270E0660F771F6038710570F561154C
:104A1000710569F1862F089581FF07C06091140226
:104A200084E0689FB0011124EFCF6091140282FDF1
:104A30000AC08091DC058823A9F0209113026091BF
:104A40001402821710F088E0ECCF869FC001112479
:104A500033E0880F991F3A95E1F7622F70E00E94CA
:104A60006A32D2CF68E070E0D5CF8FE7089581E059
:104A700008958091DD0580FF0CC06091100270E008
:104A800075956795759567956115710549F1862F3F
:104A9000089581FF06C06091100270E075956795DA
:104AA000F3CF6091100282FD0BC09091DB0599233A
:104AB000A1F060910F0280911002961738F0682FD4
:104AC00070E06038710500F38FE70895899FC00199
:104AD000112470E00E946A32F4CF61E070E0D7CF19
:104AE00081E008958D3C31F40E94FB2481958093F0
:104AF000E10508958E3C19F40E94FB24F8CF8F3C09
:104B000031F40E94FB2481958093E0050895803D57
:104B100019F40E94FB24F8CF893D29F40E9439251D
:104B20008093E20508958A3D21F40E9439258195FC
:104B3000F7CF8B3D31F40E94392581958093E305B1
:104B400008958C3D19F40E943925F8CF9FE2980F03
:104B5000983070F4815D990B21E030E001C0220FA4
:104B60008A95EAF78091DF05822B8093DF0508950F
:104B70008D3D31F48091DD0581608093DD050895E0
:104B80008E3D21F48091DD058260F7CF8F3DB9F72E
:104B90008091DD058460F1CF4091E0058D3C59F4B2
:104BA0008091E10587FF0DC01092E10541110BC016
:104BB0001092DC0508C08E3C81F48091E105181646
:104BC0009CF3442381F08091E2059091E305892BC9
:104BD00009F05AC01092DB0508958F3C49F447FF55
:104BE000F0CF1092E0058091E1058111ECCFE0CF8C
:104BF000803D19F41416ACF3E4CF9091E205893DA1
:104C000029F41916F4F61092E205DBCF8A3D19F467
:104C100097FFD7CFF8CF9091E3058B3D29F497FF0D
:104C2000D0CF1092E305CDCF8C3D19F41916CCF3FB
:104C3000C8CF9FE2980F983090F4815D990B21E0E6
:104C400030E0B90102C0660F771F8A95E2F7CB0109
:104C500080959091DF0589238093DF05B2CF8D3D4C
:104C600031F48091DD058E7F8093DD05AACF8E3DE6
:104C700021F48091DD058D7FF7CF8F3D09F0A1CF25
:104C80008091DD058B7FF0CF08950E94652A9C01FD
:104C90009091E0058091E105982B21F03093DA05A1
:104CA0002093D9059091E2058091E305982B21F09E
:104CB0003093D8052093D7058EED95E00E944728C4
:104CC000089586E0EEEDF5E0DF011D928A95E9F7A3
:104CD0001092DC051092DB051092DD050895FC01B1
:104CE000828181110EC0838181110BC08481811169
:104CF00008C091E08581811101C090E0892F817009
:104D0000089581E0FCCFA6E0B0E0E9E8F6E20C947B
:104D1000D43286E0EEEDF5E0DE01119601900D92C1
:104D20008A95E1F71092E0051092E1051092E205F4
:104D30001092E3058B819C81892B89F08091D905A4
:104D40009091DA050E947D2AAC019091DC059923AF
:104D5000C9F1809115028417150608F440C08D81B1
:104D60009E81892B91F08091D7059091D8050E9462
:104D70007D2AAC019091DB05992309F46AC08091EA
:104D800011028417150608F472C0BE016F5F7F4FD1
:104D90008EED95E00E949229811105C08EED95E07F
:104DA0000E946F2681110E94452686E0FE01319601
:104DB000AEEDB5E001900D928A95E1F72696E3E01D
:104DC0000C94F032209116028AE0289F9001112461
:104DD0002417350720F69F5F9093DC0502C09F3FA4
:104DE000D1F71B81112359F00E94FB249FEF11166C
:104DF0000CF491E0899F802D11248093E0051C81A3
:104E0000112359F00E94FB249FEF11160CF491E03E
:104E1000899F802D11248093E1058091E0058823EE
:104E200009F49DCF1091E105112309F498CF0E9458
:104E3000ED24882351F08093E005812F0E94ED241A
:104E4000882329F08093E1058ACF81E0F4CF81E0C7
:104E5000F9CF209112028AE0289F90011124241793
:104E6000350708F092CF9F5F9093DB0502C09F3F0C
:104E7000D1F71D81112359F00E9439259FEF11169A
:104E80000CF491E0899F802D11248093E2051E810E
:104E9000112359F00E9439259FEF11160CF491E06F
:104EA000899F802D11248093E3058091E20588235A
:104EB00009F46BCF1091E305112309F466CF0E942A
:104EC000ED24882351F08093E205812F0E94ED2488
:104ED000882329F08093E30558CF81E0F4CF81E067
:104EE000F9CF0F931F93CF93DF93C42FD22FFC01E1
:104EF00085818823C9F04093E6050E94652A909336
:104F0000E5058093E40580E28C0F883040F4C7709B
:104F100081E001C0880FCA95EAF70E949B05DF91E6
:104F2000CF911F910F9108951091E605141332C08F
:104F30008091E4059091E5050E947D2A883C9105C9
:104F400048F5C0E2CD0F1D17B9F080E2810F88301F
:104F500040F4177081E001C0880F1A95EAF70E94AB
:104F6000A205C83048F481E09D2F977001C0880FDA
:104F70009A95EAF70E949B05802F0E949205C830FF
:104F800070F6D77081E001C0880FDA95EAF70E94C9
:104F9000A205C5CF80E28C0F883008F6C77081E08B
:104FA00001C0880FCA95EAF7F2CF0F93DB01885151
:104FB0009C4787309105A0F5FC01E053FC4C0C9414
:104FC000BF3206E221EE41EE6AE17CE7CD010E94AC
:104FD000712780E00F91089507E225EE45EE6BE121
:104FE0007CE7F4CF06E221EE40EE68E17CE7EECF0D
:104FF00007E225EE44EE69E17CE7E8CF06E221EE28
:1050000042EE6CE17CE7E2CF07E225EE46EE6DE191
:105010007CE7DCCF08E221E045EE6EE17CE7D6CF0D
:1050200015968C91882319F01092E605D3CF81E074
:10503000D1CF9093EC058093EB050895E091EB05BB
:10504000F091EC05309729F00190F081E02D099561
:10505000089580E008950E941E280895E091EB05D0
:10506000F091EC05309721F00280F381E02D099555
:105070000895E091EB05F091EC05309739F026E0CA
:10508000DC012C930480F581E02D09950895E091D1
:10509000EB05F091EC05309739F022E0DC012C9320
:1050A0000680F781E02D09950895A3E0B0E0EBE5D7
:1050B000F8E20C94D5322091E9053091EA052817E1
:1050C0003907A1F09093EA058093E905E091EB059B
:1050D000F091EC05309751F023E029839B838A837C
:1050E0000084F185E02DCE01019609952396E2E03A
:1050F0000C94F132A3E0B0E0E0E8F8E20C94D53291
:105100002091E7053091E80528173907A1F0909321
:10511000E8058093E705E091EB05F091EC05309709
:1051200051F024E029839B838A830084F185E02D5C
:10513000CE01019609952396E2E00C94F13220917C
:105140000502309106022E5F3F4F80912102882395
:1051500079F08091F90587FF0BC02091030230910F
:1051600004022E5F3F4F9EE180E0915018F40895B5
:1051700096E0FACFF90141919F014423B1F38F5F8B
:10518000F4CF882321F190912102992311F190917C
:10519000F90597FF1EC0E82FE695E695E695EE31F6
:1051A000B0F42091030230910402E20FF32FF11DBD
:1051B000228130E0877041E050E002C0440F551F6B
:1051C0008A95E2F72423352381E0232B91F480E0B4
:1051D00008952091050230910602F9013296285F68
:1051E0003F4F9191981721F0E217F307D1F7EFCFD6
:1051F00081E008959C01FC0132969FEF80E041918F
:10520000461751F09F3F19F4411101C0982F8F5F4D
:105210008630A9F79F3F09F40895290F311D97FDA6
:105220003A95F90162830895FC013296089621911E
:10523000261303C0DF0111971C92E817F907B9F78D
:105240000895E62FE695E695E695EE3168F4E80FC9
:10525000F92FF11D677021E030E001C0220F6A953F
:10526000EAF78281822B82830895E62FE695E69500
:10527000E695EE3170F4E80FF92FF11D677021E02B
:1052800030E001C0220F6A95EAF720958281282339
:1052900022830895682F80912102882359F08091FC
:1052A000F90587FF07C080910302909104020E94D4
:1052B0002129089580910502909106020E94FA2802
:1052C0000895682F80912102882359F08091F90573
:1052D00087FF07C080910302909104020E94352944
:1052E000089580910502909106020E941429089564
:1052F00080912102882379F08091F90587FF0BC006
:10530000E0910302F091040232968EE1DF011D92DA
:105310008A95E9F70895E0910502F0910602329628
:1053200086E0F4CFDC01FB0111969C9111978181FD
:10533000981322C012968C911297882319F09281AB
:1053400089131AC013968C911397882319F09381AF
:10535000891312C015968C911597882319F09581A1
:1053600089130AC014969C91992321F081E024812D
:10537000291303C080E001C081E081700895089581
:105380000E94BF290895811106C081E08093ED0538
:105390000E94C029089582E0F9CF83E08093ED0553
:1053A0000E94C02908950E94C329089581E0809336
:1053B000ED050E94C02908950E94D62908950895F8
:1053C00008950E94E0290895089508950E94DF2914
:1053D0000895CF930E94E4290E942F120E94E5298C
:1053E000C0E08C2F0E946011892B31F4CF5FC53053
:1053F000C1F780E0CF91089581E0FCCF85B7806848
:1054000085BF85B7806885BF08951F921FB61F921C
:1054100011248F939F93AF93BF938091EE058111D9
:1054200013C08091440690914506A0914606B09124
:1054300047064196A11DB11D8093440690934506F1
:10544000A0934606B0934706BF91AF919F918F916D
:105450001F901FBE1F90189580914C06843031F12B
:105460000E9471041092EE0588E190E020E40FB6EE
:10547000F894A895809360000FBE2093600083B7D6
:10548000817F846083BF83B7816083BF7894889570
:1054900083B78E7F83BF0FB6F894A8958091600084
:1054A000886180936000109260000FBE08950E9492
:1054B000EE070E947B04089582E084BD93E095BDD1
:1054C0009AEF97BD80936E0008952FB7F89480915E
:1054D000440690914506A0914606B09147062FBF1D
:1054E00008952FB7F8946091440670914506809115
:1054F0004606909147062FBF08959C014FB7F89438
:105500008091440690914506A0914606B0914706C9
:105510004FBF821B930B0895CF92DF92EF92FF92C1
:105520002FB7F894C0904406D0904506E090460608
:10553000F09047062FBFA7019601261B370B480B9B
:10554000590BCA01B901FF90EF90DF90CF900895F9
:1055500078941F921FB61F9211248F939F93AF933D
:10556000BF938091440690914506A0914606B09164
:1055700047060196A11DB11D8093440690934506F0
:10558000A0934606B0934706BF91AF919F918F912C
:105590001F901FBE1F90189581E08093E00080E26D
:1055A0008093D8001092C9008FE19EE40197F1F733
:1055B00000C0000087E090EBDC01809355069093DB
:1055C0005606A0935706B093580688E19CE00FB6A4
:1055D000F894A895809360000FBE90936000FFCF71
:1055E00088E19CE00FB6F894A895809360000FBE08
:1055F00090936000FFCFEF92FF920F931F93CF9392
:10560000DF93182FEB011092BC0084EA8093BC005A
:105610000E94652A7C018091BC0087FF27C0809191
:10562000B900887F883029F08091B900887F803167
:1056300089F51093BB0084E88093BC000E94652A22
:105640008C018091BC0087FF1EC02091B900287F8B
:1056500090E080E0283191F081E090E0203411F476
:1056600090E080E091958195910908C0C7010E9462
:105670007D2AC817D90778F68EEF9FEFCDB7DEB732
:10568000E6E00C94ED32C8010E947D2AC817D907C4
:10569000C0F6F2CF8FEF9FEFF1CF1092B9008CE000
:1056A0008093B80008950F931F93CF93DF93EB017E
:1056B0008093BB0084E88093BC000E94652A8C0123
:1056C0008091BC0087FF11C02091B900287F81E044
:1056D00090E0283211F490E080E091958195910955
:1056E000DF91CF911F910F910895CF3FDC0741F3D8
:1056F000C8010E947D2AC817D90710F78EEF9FEFC7
:10570000EFCFB0E0A0E0E7E8FBE20C94C932682EEE
:10571000762E5A0169010E94652A4C01C1E0D0E051
:105720000431110558F0C5E0D0E00F3F100731F00B
:10573000C80164E170E00E945632EB01BE01862D83
:105740000E94FB2A7C0197FF1DC00F3F1007B1F399
:10575000C4010E947D2A0817190780F784E9809305
:10576000BC00C701CDB7DEB7EEE00C94E532B8015E
:1057700089910E94532B7C01CC16DD0679F3F7FE4C
:10578000F6CFECCFB801872D0E94532B7C01E501A9
:10579000CA0CDB1CF1CF8091F70508959B01BA017B
:1057A00090914C069430E9F48F708093E9009FEF5C
:1057B0008091E800915085FD06C085ED8A95F1F74E
:1057C00000009111F5CF8091E80085FF0AC050E0FC
:1057D00040E0C9010E94CF2D8091E8008E77809330
:1057E000E800089543E050E0BC0182E00E94CE2B27
:1057F000089546E050E0BC0182E00E94CE2B08955F
:1058000040E250E0BC0182E00E94CE2B0895CF938D
:10581000DF93EC0148E050E0BC0181E00E94CE2B18
:1058200088E0FE01AFEEB5E001900D928A95E1F7B8
:10583000DF91CF91089580914B06811109C00E949C
:105840005F2F0E94BC2F8091E20084608093E20071
:10585000089510924B0608950E94D62908956091EC
:10586000480681E0611101C080E00E94CD290895C1
:1058700090914C0681E0943009F080E060914806F8
:105880000E94D329089542E061EC81E00E94DB2E62
:1058900042E261EC82E00E94DB2E90914C0681E0B6
:1058A000943009F080E0609148060E94C329089571
:1058B00080914E06833009F461C030F48130D1F11B
:1058C000823009F49EC008958A3009F48AC08B3072
:1058D00009F46FC0893009F050C080914D068132C3
:1058E00009F04BC08091510690915206029708F042
:1058F00044C08091E800877F8093E8008091E800B1
:1059000082FF37C09091F3008091F200029731F44A
:105910008091F100813011F0863021F48091F10006
:105920008093F7058091E8008B778093E8000E94D0
:105930000F2F23C080914D06813AF9F48091E80041
:10594000877F8093E8008091510690915206892BC1
:1059500061F468E08FEE95E070E00E941E2E809169
:10596000E8008B778093E800089560E090E080E0A5
:10597000F3CF80914C068111C1CF089580914D06DF
:10598000813AD9F78091510690915206892BA9F757
:105990008091E800877F8093E8008091E80080FF95
:1059A000FCCF809121028093F1008091E8008E77F6
:1059B000BCCF80914D06813201F7809151069091C4
:1059C0005206892BD1F68091E800877F8093E8000A
:1059D0000E940F2F80914F06809321020E94EE07B4
:1059E000089580914D06813241F68091E800877FCD
:1059F0008093E8000E940F2F809150068093F80555
:105A0000089580914D06813A09F0B7CF8091E80062
:105A1000877F8093E8008091E80080FFFCCF809131
:105A2000F805C1CF84B7877F84BF0FB6F894A895D7
:105A300080916000886180936000109260000FBECA
:105A400080E890E00FB6F894809361009093610035
:105A50000FBE0E94DC2908950E945F2F0E94BC2F78
:105A6000E2EEF0E080818460808378940E943B3293
:105A7000089587E192E00E941928089580914C06CC
:105A8000853031F480914C06853019F00E94572AF8
:105A900008950E942C2A0E94E929882399F3809175
:105AA0004A06882379F30E94B92D0E94EE07EACFB7
:105AB00008959A0140915306509154060E94612D19
:105AC0000895492F55274330510519F168F44130A5
:105AD000510509F444C04230510509F445C090E035
